{
  "_format": "hh-sol-artifact-1",
  "contractName": "GreenHydrogenCredit",
  "sourceName": "contracts/GreenHydrogenCredit.sol",
  "abi": [
    {
      "inputs": [],
      "stateMutability": "nonpayable",
      "type": "constructor"
    },
    {
      "inputs": [
        {
          "internalType": "address",
          "name": "sender",
          "type": "address"
        },
        {
          "internalType": "uint256",
          "name": "tokenId",
          "type": "uint256"
        },
        {
          "internalType": "address",
          "name": "owner",
          "type": "address"
        }
      ],
      "name": "ERC721IncorrectOwner",
      "type": "error"
    },
    {
      "inputs": [
        {
          "internalType": "address",
          "name": "operator",
          "type": "address"
        },
        {
          "internalType": "uint256",
          "name": "tokenId",
          "type": "uint256"
        }
      ],
      "name": "ERC721InsufficientApproval",
      "type": "error"
    },
    {
      "inputs": [
        {
          "internalType": "address",
          "name": "approver",
          "type": "address"
        }
      ],
      "name": "ERC721InvalidApprover",
      "type": "error"
    },
    {
      "inputs": [
        {
          "internalType": "address",
          "name": "operator",
          "type": "address"
        }
      ],
      "name": "ERC721InvalidOperator",
      "type": "error"
    },
    {
      "inputs": [
        {
          "internalType": "address",
          "name": "owner",
          "type": "address"
        }
      ],
      "name": "ERC721InvalidOwner",
      "type": "error"
    },
    {
      "inputs": [
        {
          "internalType": "address",
          "name": "receiver",
          "type": "address"
        }
      ],
      "name": "ERC721InvalidReceiver",
      "type": "error"
    },
    {
      "inputs": [
        {
          "internalType": "address",
          "name": "sender",
          "type": "address"
        }
      ],
      "name": "ERC721InvalidSender",
      "type": "error"
    },
    {
      "inputs": [
        {
          "internalType": "uint256",
          "name": "tokenId",
          "type": "uint256"
        }
      ],
      "name": "ERC721NonexistentToken",
      "type": "error"
    },
    {
      "inputs": [
        {
          "internalType": "address",
          "name": "owner",
          "type": "address"
        }
      ],
      "name": "OwnableInvalidOwner",
      "type": "error"
    },
    {
      "inputs": [
        {
          "internalType": "address",
          "name": "account",
          "type": "address"
        }
      ],
      "name": "OwnableUnauthorizedAccount",
      "type": "error"
    },
    {
      "anonymous": false,
      "inputs": [
        {
          "indexed": true,
          "internalType": "address",
          "name": "owner",
          "type": "address"
        },
        {
          "indexed": true,
          "internalType": "address",
          "name": "approved",
          "type": "address"
        },
        {
          "indexed": true,
          "internalType": "uint256",
          "name": "tokenId",
          "type": "uint256"
        }
      ],
      "name": "Approval",
      "type": "event"
    },
    {
      "anonymous": false,
      "inputs": [
        {
          "indexed": true,
          "internalType": "address",
          "name": "owner",
          "type": "address"
        },
        {
          "indexed": true,
          "internalType": "address",
          "name": "operator",
          "type": "address"
        },
        {
          "indexed": false,
          "internalType": "bool",
          "name": "approved",
          "type": "bool"
        }
      ],
      "name": "ApprovalForAll",
      "type": "event"
    },
    {
      "anonymous": false,
      "inputs": [
        {
          "indexed": true,
          "internalType": "address",
          "name": "to",
          "type": "address"
        },
        {
          "indexed": true,
          "internalType": "uint256",
          "name": "tokenId",
          "type": "uint256"
        }
      ],
      "name": "CreditMinted",
      "type": "event"
    },
    {
      "anonymous": false,
      "inputs": [
        {
          "indexed": true,
          "internalType": "address",
          "name": "previousOwner",
          "type": "address"
        },
        {
          "indexed": true,
          "internalType": "address",
          "name": "newOwner",
          "type": "address"
        }
      ],
      "name": "OwnershipTransferred",
      "type": "event"
    },
    {
      "anonymous": false,
      "inputs": [
        {
          "indexed": true,
          "internalType": "address",
          "name": "from",
          "type": "address"
        },
        {
          "indexed": true,
          "internalType": "address",
          "name": "to",
          "type": "address"
        },
        {
          "indexed": true,
          "internalType": "uint256",
          "name": "tokenId",
          "type": "uint256"
        }
      ],
      "name": "Transfer",
      "type": "event"
    },
    {
      "inputs": [
        {
          "internalType": "address",
          "name": "to",
          "type": "address"
        },
        {
          "internalType": "uint256",
          "name": "tokenId",
          "type": "uint256"
        }
      ],
      "name": "approve",
      "outputs": [],
      "stateMutability": "nonpayable",
      "type": "function"
    },
    {
      "inputs": [
        {
          "internalType": "address",
          "name": "owner",
          "type": "address"
        }
      ],
      "name": "balanceOf",
      "outputs": [
        {
          "internalType": "uint256",
          "name": "",
          "type": "uint256"
        }
      ],
      "stateMutability": "view",
      "type": "function"
    },
    {
      "inputs": [
        {
          "internalType": "uint256",
          "name": "tokenId",
          "type": "uint256"
        }
      ],
      "name": "getApproved",
      "outputs": [
        {
          "internalType": "address",
          "name": "",
          "type": "address"
        }
      ],
      "stateMutability": "view",
      "type": "function"
    },
    {
      "inputs": [
        {
          "internalType": "address",
          "name": "owner",
          "type": "address"
        },
        {
          "internalType": "address",
          "name": "operator",
          "type": "address"
        }
      ],
      "name": "isApprovedForAll",
      "outputs": [
        {
          "internalType": "bool",
          "name": "",
          "type": "bool"
        }
      ],
      "stateMutability": "view",
      "type": "function"
    },
    {
      "inputs": [
        {
          "internalType": "address",
          "name": "to",
          "type": "address"
        }
      ],
      "name": "mintCredit",
      "outputs": [
        {
          "internalType": "uint256",
          "name": "",
          "type": "uint256"
        }
      ],
      "stateMutability": "nonpayable",
      "type": "function"
    },
    {
      "inputs": [],
      "name": "name",
      "outputs": [
        {
          "internalType": "string",
          "name": "",
          "type": "string"
        }
      ],
      "stateMutability": "view",
      "type": "function"
    },
    {
      "inputs": [],
      "name": "owner",
      "outputs": [
        {
          "internalType": "address",
          "name": "",
          "type": "address"
        }
      ],
      "stateMutability": "view",
      "type": "function"
    },
    {
      "inputs": [
        {
          "internalType": "uint256",
          "name": "tokenId",
          "type": "uint256"
        }
      ],
      "name": "ownerOf",
      "outputs": [
        {
          "internalType": "address",
          "name": "",
          "type": "address"
        }
      ],
      "stateMutability": "view",
      "type": "function"
    },
    {
      "inputs": [],
      "name": "renounceOwnership",
      "outputs": [],
      "stateMutability": "nonpayable",
      "type": "function"
    },
    {
      "inputs": [
        {
          "internalType": "address",
          "name": "from",
          "type": "address"
        },
        {
          "internalType": "address",
          "name": "to",
          "type": "address"
        },
        {
          "internalType": "uint256",
          "name": "tokenId",
          "type": "uint256"
        }
      ],
      "name": "safeTransferFrom",
      "outputs": [],
      "stateMutability": "nonpayable",
      "type": "function"
    },
    {
      "inputs": [
        {
          "internalType": "address",
          "name": "from",
          "type": "address"
        },
        {
          "internalType": "address",
          "name": "to",
          "type": "address"
        },
        {
          "internalType": "uint256",
          "name": "tokenId",
          "type": "uint256"
        },
        {
          "internalType": "bytes",
          "name": "data",
          "type": "bytes"
        }
      ],
      "name": "safeTransferFrom",
      "outputs": [],
      "stateMutability": "nonpayable",
      "type": "function"
    },
    {
      "inputs": [
        {
          "internalType": "address",
          "name": "operator",
          "type": "address"
        },
        {
          "internalType": "bool",
          "name": "approved",
          "type": "bool"
        }
      ],
      "name": "setApprovalForAll",
      "outputs": [],
      "stateMutability": "nonpayable",
      "type": "function"
    },
    {
      "inputs": [
        {
          "internalType": "bytes4",
          "name": "interfaceId",
          "type": "bytes4"
        }
      ],
      "name": "supportsInterface",
      "outputs": [
        {
          "internalType": "bool",
          "name": "",
          "type": "bool"
        }
      ],
      "stateMutability": "view",
      "type": "function"
    },
    {
      "inputs": [],
      "name": "symbol",
      "outputs": [
        {
          "internalType": "string",
          "name": "",
          "type": "string"
        }
      ],
      "stateMutability": "view",
      "type": "function"
    },
    {
      "inputs": [
        {
          "internalType": "uint256",
          "name": "tokenId",
          "type": "uint256"
        }
      ],
      "name": "tokenURI",
      "outputs": [
        {
          "internalType": "string",
          "name": "",
          "type": "string"
        }
      ],
      "stateMutability": "view",
      "type": "function"
    },
    {
      "inputs": [
        {
          "internalType": "address",
          "name": "from",
          "type": "address"
        },
        {
          "internalType": "address",
          "name": "to",
          "type": "address"
        },
        {
          "internalType": "uint256",
          "name": "tokenId",
          "type": "uint256"
        }
      ],
      "name": "transferFrom",
      "outputs": [],
      "stateMutability": "nonpayable",
      "type": "function"
    },
    {
      "inputs": [
        {
          "internalType": "address",
          "name": "newOwner",
          "type": "address"
        }
      ],
      "name": "transferOwnership",
      "outputs": [],
      "stateMutability": "nonpayable",
      "type": "function"
    }
  ],
  "bytecode": "0x60806040523480156200001157600080fd5b50336040518060400160405280601381526020017f477265656e487964726f67656e437265646974000000000000000000000000008152506040518060400160405280600381526020017f474843000000000000000000000000000000000000000000000000000000000081525081600090816200009091906200047a565b508060019081620000a291906200047a565b505050600073ffffffffffffffffffffffffffffffffffffffff168173ffffffffffffffffffffffffffffffffffffffff16036200011a5760006040517f1e4fbdf7000000000000000000000000000000000000000000000000000000008152600401620001119190620005a6565b60405180910390fd5b6200012b816200013a60201b60201c565b506000600781905550620005c3565b6000600660009054906101000a900473ffffffffffffffffffffffffffffffffffffffff16905081600660006101000a81548173ffffffffffffffffffffffffffffffffffffffff021916908373ffffffffffffffffffffffffffffffffffffffff1602179055508173ffffffffffffffffffffffffffffffffffffffff168173ffffffffffffffffffffffffffffffffffffffff167f8be0079c531659141344cd1fd0a4f28419497f9722a3daafe3b4186f6b6457e060405160405180910390a35050565b600081519050919050565b7f4e487b7100000000000000000000000000000000000000000000000000000000600052604160045260246000fd5b7f4e487b7100000000000000000000000000000000000000000000000000000000600052602260045260246000fd5b600060028204905060018216806200028257607f821691505b6020821081036200029857620002976200023a565b5b50919050565b60008190508160005260206000209050919050565b60006020601f8301049050919050565b600082821b905092915050565b600060088302620003027fffffffffffffffffffffffffffffffffffffffffffffffffffffffffffffffff82620002c3565b6200030e8683620002c3565b95508019841693508086168417925050509392505050565b6000819050919050565b6000819050919050565b60006200035b620003556200034f8462000326565b62000330565b62000326565b9050919050565b6000819050919050565b62000377836200033a565b6200038f620003868262000362565b848454620002d0565b825550505050565b600090565b620003a662000397565b620003b38184846200036c565b505050565b5b81811015620003db57620003cf6000826200039c565b600181019050620003b9565b5050565b601f8211156200042a57620003f4816200029e565b620003ff84620002b3565b810160208510156200040f578190505b620004276200041e85620002b3565b830182620003b8565b50505b505050565b600082821c905092915050565b60006200044f600019846008026200042f565b1980831691505092915050565b60006200046a83836200043c565b9150826002028217905092915050565b620004858262000200565b67ffffffffffffffff811115620004a157620004a06200020b565b5b620004ad825462000269565b620004ba828285620003df565b600060209050601f831160018114620004f25760008415620004dd578287015190505b620004e985826200045c565b86555062000559565b601f19841662000502866200029e565b60005b828110156200052c5784890151825560018201915060208501945060208101905062000505565b868310156200054c578489015162000548601f8916826200043c565b8355505b6001600288020188555050505b505050505050565b600073ffffffffffffffffffffffffffffffffffffffff82169050919050565b60006200058e8262000561565b9050919050565b620005a08162000581565b82525050565b6000602082019050620005bd600083018462000595565b92915050565b61215f80620005d36000396000f3fe608060405234801561001057600080fd5b506004361061010b5760003560e01c8063715018a6116100a2578063b88d4fde11610071578063b88d4fde146102a4578063c87b56dd146102c0578063d8acf470146102f0578063e985e9c514610320578063f2fde38b146103505761010b565b8063715018a6146102425780638da5cb5b1461024c57806395d89b411461026a578063a22cb465146102885761010b565b806323b872dd116100de57806323b872dd146101aa57806342842e0e146101c65780636352211e146101e257806370a08231146102125761010b565b806301ffc9a71461011057806306fdde0314610140578063081812fc1461015e578063095ea7b31461018e575b600080fd5b61012a60048036038101906101259190611946565b61036c565b604051610137919061198e565b60405180910390f35b61014861044e565b6040516101559190611a39565b60405180910390f35b61017860048036038101906101739190611a91565b6104e0565b6040516101859190611aff565b60405180910390f35b6101a860048036038101906101a39190611b46565b6104fc565b005b6101c460048036038101906101bf9190611b86565b610512565b005b6101e060048036038101906101db9190611b86565b610614565b005b6101fc60048036038101906101f79190611a91565b610634565b6040516102099190611aff565b60405180910390f35b61022c60048036038101906102279190611bd9565b610646565b6040516102399190611c15565b60405180910390f35b61024a610700565b005b610254610714565b6040516102619190611aff565b60405180910390f35b61027261073e565b60405161027f9190611a39565b60405180910390f35b6102a2600480360381019061029d9190611c5c565b6107d0565b005b6102be60048036038101906102b99190611dd1565b6107e6565b005b6102da60048036038101906102d59190611a91565b61080b565b6040516102e79190611a39565b60405180910390f35b61030a60048036038101906103059190611bd9565b610874565b6040516103179190611c15565b60405180910390f35b61033a60048036038101906103359190611e54565b6108f6565b604051610347919061198e565b60405180910390f35b61036a60048036038101906103659190611bd9565b61098a565b005b60007f80ac58cd000000000000000000000000000000000000000000000000000000007bffffffffffffffffffffffffffffffffffffffffffffffffffffffff1916827bffffffffffffffffffffffffffffffffffffffffffffffffffffffff1916148061043757507f5b5e139f000000000000000000000000000000000000000000000000000000007bffffffffffffffffffffffffffffffffffffffffffffffffffffffff1916827bffffffffffffffffffffffffffffffffffffffffffffffffffffffff1916145b80610447575061044682610a10565b5b9050919050565b60606000805461045d90611ec3565b80601f016020809104026020016040519081016040528092919081815260200182805461048990611ec3565b80156104d65780601f106104ab576101008083540402835291602001916104d6565b820191906000526020600020905b8154815290600101906020018083116104b957829003601f168201915b5050505050905090565b60006104eb82610a7a565b506104f582610b02565b9050919050565b61050e8282610509610b3f565b610b47565b5050565b600073ffffffffffffffffffffffffffffffffffffffff168273ffffffffffffffffffffffffffffffffffffffff16036105845760006040517f64a0ae9200000000000000000000000000000000000000000000000000000000815260040161057b9190611aff565b60405180910390fd5b60006105988383610593610b3f565b610b59565b90508373ffffffffffffffffffffffffffffffffffffffff168173ffffffffffffffffffffffffffffffffffffffff161461060e578382826040517f64283d7b00000000000000000000000000000000000000000000000000000000815260040161060593929190611ef4565b60405180910390fd5b50505050565b61062f838383604051806020016040528060008152506107e6565b505050565b600061063f82610a7a565b9050919050565b60008073ffffffffffffffffffffffffffffffffffffffff168273ffffffffffffffffffffffffffffffffffffffff16036106b95760006040517f89c62b640000000000000000000000000000000000000000000000000000000081526004016106b09190611aff565b60405180910390fd5b600360008373ffffffffffffffffffffffffffffffffffffffff1673ffffffffffffffffffffffffffffffffffffffff168152602001908152602001600020549050919050565b610708610d73565b6107126000610dfa565b565b6000600660009054906101000a900473ffffffffffffffffffffffffffffffffffffffff16905090565b60606001805461074d90611ec3565b80601f016020809104026020016040519081016040528092919081815260200182805461077990611ec3565b80156107c65780601f1061079b576101008083540402835291602001916107c6565b820191906000526020600020905b8154815290600101906020018083116107a957829003601f168201915b5050505050905090565b6107e26107db610b3f565b8383610ec0565b5050565b6107f1848484610512565b6108056107fc610b3f565b8585858561102f565b50505050565b606061081682610a7a565b5060006108216111e0565b90506000815111610841576040518060200160405280600081525061086c565b8061084b846111f7565b60405160200161085c929190611f67565b6040516020818303038152906040525b915050919050565b600061087e610d73565b6001600760008282546108919190611fba565b92505081905550600060075490506108a983826112c5565b808373ffffffffffffffffffffffffffffffffffffffff167fe5eddd66e2c7f2786263c2b3a8258da906699a05a1841b037baeb1d1c80886b860405160405180910390a380915050919050565b6000600560008473ffffffffffffffffffffffffffffffffffffffff1673ffffffffffffffffffffffffffffffffffffffff16815260200190815260200160002060008373ffffffffffffffffffffffffffffffffffffffff1673ffffffffffffffffffffffffffffffffffffffff16815260200190815260200160002060009054906101000a900460ff16905092915050565b610992610d73565b600073ffffffffffffffffffffffffffffffffffffffff168173ffffffffffffffffffffffffffffffffffffffff1603610a045760006040517f1e4fbdf70000000000000000000000000000000000000000000000000000000081526004016109fb9190611aff565b60405180910390fd5b610a0d81610dfa565b50565b60007f01ffc9a7000000000000000000000000000000000000000000000000000000007bffffffffffffffffffffffffffffffffffffffffffffffffffffffff1916827bffffffffffffffffffffffffffffffffffffffffffffffffffffffff1916149050919050565b600080610a86836112e3565b9050600073ffffffffffffffffffffffffffffffffffffffff168173ffffffffffffffffffffffffffffffffffffffff1603610af957826040517f7e273289000000000000000000000000000000000000000000000000000000008152600401610af09190611c15565b60405180910390fd5b80915050919050565b60006004600083815260200190815260200160002060009054906101000a900473ffffffffffffffffffffffffffffffffffffffff169050919050565b600033905090565b610b548383836001611320565b505050565b600080610b65846112e3565b9050600073ffffffffffffffffffffffffffffffffffffffff168373ffffffffffffffffffffffffffffffffffffffff1614610ba757610ba68184866114e5565b5b600073ffffffffffffffffffffffffffffffffffffffff168173ffffffffffffffffffffffffffffffffffffffff1614610c3857610be9600085600080611320565b6001600360008373ffffffffffffffffffffffffffffffffffffffff1673ffffffffffffffffffffffffffffffffffffffff168152602001908152602001600020600082825403925050819055505b600073ffffffffffffffffffffffffffffffffffffffff168573ffffffffffffffffffffffffffffffffffffffff1614610cbb576001600360008773ffffffffffffffffffffffffffffffffffffffff1673ffffffffffffffffffffffffffffffffffffffff168152602001908152602001600020600082825401925050819055505b846002600086815260200190815260200160002060006101000a81548173ffffffffffffffffffffffffffffffffffffffff021916908373ffffffffffffffffffffffffffffffffffffffff160217905550838573ffffffffffffffffffffffffffffffffffffffff168273ffffffffffffffffffffffffffffffffffffffff167fddf252ad1be2c89b69c2b068fc378daa952ba7f163c4a11628f55a4df523b3ef60405160405180910390a4809150509392505050565b610d7b610b3f565b73ffffffffffffffffffffffffffffffffffffffff16610d99610714565b73ffffffffffffffffffffffffffffffffffffffff1614610df857610dbc610b3f565b6040517f118cdaa7000000000000000000000000000000000000000000000000000000008152600401610def9190611aff565b60405180910390fd5b565b6000600660009054906101000a900473ffffffffffffffffffffffffffffffffffffffff16905081600660006101000a81548173ffffffffffffffffffffffffffffffffffffffff021916908373ffffffffffffffffffffffffffffffffffffffff1602179055508173ffffffffffffffffffffffffffffffffffffffff168173ffffffffffffffffffffffffffffffffffffffff167f8be0079c531659141344cd1fd0a4f28419497f9722a3daafe3b4186f6b6457e060405160405180910390a35050565b600073ffffffffffffffffffffffffffffffffffffffff168273ffffffffffffffffffffffffffffffffffffffff1603610f3157816040517f5b08ba18000000000000000000000000000000000000000000000000000000008152600401610f289190611aff565b60405180910390fd5b80600560008573ffffffffffffffffffffffffffffffffffffffff1673ffffffffffffffffffffffffffffffffffffffff16815260200190815260200160002060008473ffffffffffffffffffffffffffffffffffffffff1673ffffffffffffffffffffffffffffffffffffffff16815260200190815260200160002060006101000a81548160ff0219169083151502179055508173ffffffffffffffffffffffffffffffffffffffff168373ffffffffffffffffffffffffffffffffffffffff167f17307eab39ab6107e8899845ad3d59bd9653f200f220920489ca2b5937696c3183604051611022919061198e565b60405180910390a3505050565b60008373ffffffffffffffffffffffffffffffffffffffff163b11156111d9578273ffffffffffffffffffffffffffffffffffffffff1663150b7a02868685856040518563ffffffff1660e01b815260040161108e9493929190612043565b6020604051808303816000875af19250505080156110ca57506040513d601f19601f820116820180604052508101906110c791906120a4565b60015b61114e573d80600081146110fa576040519150601f19603f3d011682016040523d82523d6000602084013e6110ff565b606091505b50600081510361114657836040517f64a0ae9200000000000000000000000000000000000000000000000000000000815260040161113d9190611aff565b60405180910390fd5b805160208201fd5b63150b7a0260e01b7bffffffffffffffffffffffffffffffffffffffffffffffffffffffff1916817bffffffffffffffffffffffffffffffffffffffffffffffffffffffff1916146111d757836040517f64a0ae920000000000000000000000000000000000000000000000000000000081526004016111ce9190611aff565b60405180910390fd5b505b5050505050565b606060405180602001604052806000815250905090565b606060006001611206846115a9565b01905060008167ffffffffffffffff81111561122557611224611ca6565b5b6040519080825280601f01601f1916602001820160405280156112575781602001600182028036833780820191505090505b509050600082602083010190505b6001156112ba578080600190039150507f3031323334353637383961626364656600000000000000000000000000000000600a86061a8153600a85816112ae576112ad6120d1565b5b04945060008503611265575b819350505050919050565b6112df8282604051806020016040528060008152506116fc565b5050565b60006002600083815260200190815260200160002060009054906101000a900473ffffffffffffffffffffffffffffffffffffffff169050919050565b80806113595750600073ffffffffffffffffffffffffffffffffffffffff168273ffffffffffffffffffffffffffffffffffffffff1614155b1561148d57600061136984610a7a565b9050600073ffffffffffffffffffffffffffffffffffffffff168373ffffffffffffffffffffffffffffffffffffffff16141580156113d457508273ffffffffffffffffffffffffffffffffffffffff168173ffffffffffffffffffffffffffffffffffffffff1614155b80156113e757506113e581846108f6565b155b1561142957826040517fa9fbf51f0000000000000000000000000000000000000000000000000000000081526004016114209190611aff565b60405180910390fd5b811561148b57838573ffffffffffffffffffffffffffffffffffffffff168273ffffffffffffffffffffffffffffffffffffffff167f8c5be1e5ebec7d5bd14f71427d1e84f3dd0314c0f7b2291e5b200ac8c7c3b92560405160405180910390a45b505b836004600085815260200190815260200160002060006101000a81548173ffffffffffffffffffffffffffffffffffffffff021916908373ffffffffffffffffffffffffffffffffffffffff16021790555050505050565b6114f0838383611720565b6115a457600073ffffffffffffffffffffffffffffffffffffffff168373ffffffffffffffffffffffffffffffffffffffff160361156557806040517f7e27328900000000000000000000000000000000000000000000000000000000815260040161155c9190611c15565b60405180910390fd5b81816040517f177e802f00000000000000000000000000000000000000000000000000000000815260040161159b929190612100565b60405180910390fd5b505050565b600080600090507a184f03e93ff9f4daa797ed6e38ed64bf6a1f0100000000000000008310611607577a184f03e93ff9f4daa797ed6e38ed64bf6a1f01000000000000000083816115fd576115fc6120d1565b5b0492506040810190505b6d04ee2d6d415b85acef81000000008310611644576d04ee2d6d415b85acef8100000000838161163a576116396120d1565b5b0492506020810190505b662386f26fc10000831061167357662386f26fc100008381611669576116686120d1565b5b0492506010810190505b6305f5e100831061169c576305f5e1008381611692576116916120d1565b5b0492506008810190505b61271083106116c15761271083816116b7576116b66120d1565b5b0492506004810190505b606483106116e457606483816116da576116d96120d1565b5b0492506002810190505b600a83106116f3576001810190505b80915050919050565b61170683836117e1565b61171b611711610b3f565b600085858561102f565b505050565b60008073ffffffffffffffffffffffffffffffffffffffff168373ffffffffffffffffffffffffffffffffffffffff16141580156117d857508273ffffffffffffffffffffffffffffffffffffffff168473ffffffffffffffffffffffffffffffffffffffff161480611799575061179884846108f6565b5b806117d757508273ffffffffffffffffffffffffffffffffffffffff166117bf83610b02565b73ffffffffffffffffffffffffffffffffffffffff16145b5b90509392505050565b600073ffffffffffffffffffffffffffffffffffffffff168273ffffffffffffffffffffffffffffffffffffffff16036118535760006040517f64a0ae9200000000000000000000000000000000000000000000000000000000815260040161184a9190611aff565b60405180910390fd5b600061186183836000610b59565b9050600073ffffffffffffffffffffffffffffffffffffffff168173ffffffffffffffffffffffffffffffffffffffff16146118d55760006040517f73c6ac6e0000000000000000000000000000000000000000000000000000000081526004016118cc9190611aff565b60405180910390fd5b505050565b6000604051905090565b600080fd5b600080fd5b60007fffffffff0000000000000000000000000000000000000000000000000000000082169050919050565b611923816118ee565b811461192e57600080fd5b50565b6000813590506119408161191a565b92915050565b60006020828403121561195c5761195b6118e4565b5b600061196a84828501611931565b91505092915050565b60008115159050919050565b61198881611973565b82525050565b60006020820190506119a3600083018461197f565b92915050565b600081519050919050565b600082825260208201905092915050565b60005b838110156119e35780820151818401526020810190506119c8565b60008484015250505050565b6000601f19601f8301169050919050565b6000611a0b826119a9565b611a1581856119b4565b9350611a258185602086016119c5565b611a2e816119ef565b840191505092915050565b60006020820190508181036000830152611a538184611a00565b905092915050565b6000819050919050565b611a6e81611a5b565b8114611a7957600080fd5b50565b600081359050611a8b81611a65565b92915050565b600060208284031215611aa757611aa66118e4565b5b6000611ab584828501611a7c565b91505092915050565b600073ffffffffffffffffffffffffffffffffffffffff82169050919050565b6000611ae982611abe565b9050919050565b611af981611ade565b82525050565b6000602082019050611b146000830184611af0565b92915050565b611b2381611ade565b8114611b2e57600080fd5b50565b600081359050611b4081611b1a565b92915050565b60008060408385031215611b5d57611b5c6118e4565b5b6000611b6b85828601611b31565b9250506020611b7c85828601611a7c565b9150509250929050565b600080600060608486031215611b9f57611b9e6118e4565b5b6000611bad86828701611b31565b9350506020611bbe86828701611b31565b9250506040611bcf86828701611a7c565b9150509250925092565b600060208284031215611bef57611bee6118e4565b5b6000611bfd84828501611b31565b91505092915050565b611c0f81611a5b565b82525050565b6000602082019050611c2a6000830184611c06565b92915050565b611c3981611973565b8114611c4457600080fd5b50565b600081359050611c5681611c30565b92915050565b60008060408385031215611c7357611c726118e4565b5b6000611c8185828601611b31565b9250506020611c9285828601611c47565b9150509250929050565b600080fd5b600080fd5b7f4e487b7100000000000000000000000000000000000000000000000000000000600052604160045260246000fd5b611cde826119ef565b810181811067ffffffffffffffff82111715611cfd57611cfc611ca6565b5b80604052505050565b6000611d106118da565b9050611d1c8282611cd5565b919050565b600067ffffffffffffffff821115611d3c57611d3b611ca6565b5b611d45826119ef565b9050602081019050919050565b82818337600083830152505050565b6000611d74611d6f84611d21565b611d06565b905082815260208101848484011115611d9057611d8f611ca1565b5b611d9b848285611d52565b509392505050565b600082601f830112611db857611db7611c9c565b5b8135611dc8848260208601611d61565b91505092915050565b60008060008060808587031215611deb57611dea6118e4565b5b6000611df987828801611b31565b9450506020611e0a87828801611b31565b9350506040611e1b87828801611a7c565b925050606085013567ffffffffffffffff811115611e3c57611e3b6118e9565b5b611e4887828801611da3565b91505092959194509250565b60008060408385031215611e6b57611e6a6118e4565b5b6000611e7985828601611b31565b9250506020611e8a85828601611b31565b9150509250929050565b7f4e487b7100000000000000000000000000000000000000000000000000000000600052602260045260246000fd5b60006002820490506001821680611edb57607f821691505b602082108103611eee57611eed611e94565b5b50919050565b6000606082019050611f096000830186611af0565b611f166020830185611c06565b611f236040830184611af0565b949350505050565b600081905092915050565b6000611f41826119a9565b611f4b8185611f2b565b9350611f5b8185602086016119c5565b80840191505092915050565b6000611f738285611f36565b9150611f7f8284611f36565b91508190509392505050565b7f4e487b7100000000000000000000000000000000000000000000000000000000600052601160045260246000fd5b6000611fc582611a5b565b9150611fd083611a5b565b9250828201905080821115611fe857611fe7611f8b565b5b92915050565b600081519050919050565b600082825260208201905092915050565b600061201582611fee565b61201f8185611ff9565b935061202f8185602086016119c5565b612038816119ef565b840191505092915050565b60006080820190506120586000830187611af0565b6120656020830186611af0565b6120726040830185611c06565b8181036060830152612084818461200a565b905095945050505050565b60008151905061209e8161191a565b92915050565b6000602082840312156120ba576120b96118e4565b5b60006120c88482850161208f565b91505092915050565b7f4e487b7100000000000000000000000000000000000000000000000000000000600052601260045260246000fd5b60006040820190506121156000830185611af0565b6121226020830184611c06565b939250505056fea26469706673582212206490ac0dde219e4226af49d8d1574d49a2b600b91208fc81699288f490d9e87064736f6c63430008140033",
  "linkReferences": {},
  "deployedLinkReferences": {}
}